{
  "_format": "hh-sol-artifact-1",
  "contractName": "NefiToken",
  "sourceName": "contracts/nefi.sol",
  "abi": [
    {
      "inputs": [
        {
          "internalType": "address",
          "name": "_deodToken",
          "type": "address"
        }
      ],
      "stateMutability": "nonpayable",
      "type": "constructor"
    },
    {
      "anonymous": false,
      "inputs": [
        {
          "indexed": true,
          "internalType": "address",
          "name": "owner",
          "type": "address"
        },
        {
          "indexed": true,
          "internalType": "address",
          "name": "spender",
          "type": "address"
        },
        {
          "indexed": false,
          "internalType": "uint256",
          "name": "value",
          "type": "uint256"
        }
      ],
      "name": "Approval",
      "type": "event"
    },
    {
      "anonymous": false,
      "inputs": [
        {
          "indexed": false,
          "internalType": "address",
          "name": "user",
          "type": "address"
        },
        {
          "indexed": false,
          "internalType": "uint256",
          "name": "nefiBuy",
          "type": "uint256"
        },
        {
          "indexed": false,
          "internalType": "uint256",
          "name": "currentNefiPrice",
          "type": "uint256"
        }
      ],
      "name": "NefiTokenBuy",
      "type": "event"
    },
    {
      "anonymous": false,
      "inputs": [
        {
          "indexed": false,
          "internalType": "address",
          "name": "user",
          "type": "address"
        },
        {
          "indexed": false,
          "internalType": "uint256",
          "name": "nefiSold",
          "type": "uint256"
        },
        {
          "indexed": false,
          "internalType": "uint256",
          "name": "currentNefiPrice",
          "type": "uint256"
        },
        {
          "indexed": false,
          "internalType": "uint256",
          "name": "deodReturned",
          "type": "uint256"
        }
      ],
      "name": "NefiTokenSold",
      "type": "event"
    },
    {
      "anonymous": false,
      "inputs": [
        {
          "indexed": false,
          "internalType": "address",
          "name": "user",
          "type": "address"
        },
        {
          "indexed": false,
          "internalType": "address",
          "name": "referrer",
          "type": "address"
        }
      ],
      "name": "ReferralRegistered",
      "type": "event"
    },
    {
      "anonymous": false,
      "inputs": [
        {
          "indexed": false,
          "internalType": "address",
          "name": "user",
          "type": "address"
        },
        {
          "indexed": false,
          "internalType": "uint256",
          "name": "amount",
          "type": "uint256"
        }
      ],
      "name": "TokensClaimed",
      "type": "event"
    },
    {
      "anonymous": false,
      "inputs": [
        {
          "indexed": true,
          "internalType": "address",
          "name": "from",
          "type": "address"
        },
        {
          "indexed": true,
          "internalType": "address",
          "name": "to",
          "type": "address"
        },
        {
          "indexed": false,
          "internalType": "uint256",
          "name": "value",
          "type": "uint256"
        }
      ],
      "name": "Transfer",
      "type": "event"
    },
    {
      "inputs": [
        {
          "internalType": "uint256",
          "name": "amountIn",
          "type": "uint256"
        }
      ],
      "name": "BuyNefi",
      "outputs": [],
      "stateMutability": "nonpayable",
      "type": "function"
    },
    {
      "inputs": [
        {
          "internalType": "address",
          "name": "referrer",
          "type": "address"
        }
      ],
      "name": "Register",
      "outputs": [],
      "stateMutability": "nonpayable",
      "type": "function"
    },
    {
      "inputs": [
        {
          "internalType": "address",
          "name": "owner",
          "type": "address"
        },
        {
          "internalType": "address",
          "name": "spender",
          "type": "address"
        }
      ],
      "name": "allowance",
      "outputs": [
        {
          "internalType": "uint256",
          "name": "",
          "type": "uint256"
        }
      ],
      "stateMutability": "view",
      "type": "function"
    },
    {
      "inputs": [
        {
          "internalType": "address",
          "name": "spender",
          "type": "address"
        },
        {
          "internalType": "uint256",
          "name": "amount",
          "type": "uint256"
        }
      ],
      "name": "approve",
      "outputs": [
        {
          "internalType": "bool",
          "name": "",
          "type": "bool"
        }
      ],
      "stateMutability": "nonpayable",
      "type": "function"
    },
    {
      "inputs": [
        {
          "internalType": "address",
          "name": "account",
          "type": "address"
        }
      ],
      "name": "balanceOf",
      "outputs": [
        {
          "internalType": "uint256",
          "name": "",
          "type": "uint256"
        }
      ],
      "stateMutability": "view",
      "type": "function"
    },
    {
      "inputs": [
        {
          "internalType": "uint256",
          "name": "",
          "type": "uint256"
        }
      ],
      "name": "buyHistory",
      "outputs": [
        {
          "internalType": "address",
          "name": "buyer",
          "type": "address"
        },
        {
          "internalType": "uint256",
          "name": "amountInDeod",
          "type": "uint256"
        },
        {
          "internalType": "uint256",
          "name": "userAmount",
          "type": "uint256"
        },
        {
          "internalType": "address",
          "name": "referrer",
          "type": "address"
        },
        {
          "internalType": "uint256",
          "name": "timestamp",
          "type": "uint256"
        },
        {
          "internalType": "uint256",
          "name": "buyId",
          "type": "uint256"
        }
      ],
      "stateMutability": "view",
      "type": "function"
    },
    {
      "inputs": [
        {
          "internalType": "address",
          "name": "",
          "type": "address"
        },
        {
          "internalType": "uint256",
          "name": "",
          "type": "uint256"
        }
      ],
      "name": "buyRecordsByUser",
      "outputs": [
        {
          "internalType": "uint256",
          "name": "amount",
          "type": "uint256"
        },
        {
          "internalType": "uint256",
          "name": "timestamp",
          "type": "uint256"
        },
        {
          "internalType": "uint256",
          "name": "transactionId",
          "type": "uint256"
        }
      ],
      "stateMutability": "view",
      "type": "function"
    },
    {
      "inputs": [],
      "name": "circulatingNefiSupply",
      "outputs": [
        {
          "internalType": "uint256",
          "name": "",
          "type": "uint256"
        }
      ],
      "stateMutability": "view",
      "type": "function"
    },
    {
      "inputs": [
        {
          "internalType": "uint256",
          "name": "amount",
          "type": "uint256"
        }
      ],
      "name": "claimTokens",
      "outputs": [],
      "stateMutability": "nonpayable",
      "type": "function"
    },
    {
      "inputs": [
        {
          "internalType": "address",
          "name": "",
          "type": "address"
        }
      ],
      "name": "claimedNefiTokens",
      "outputs": [
        {
          "internalType": "uint256",
          "name": "",
          "type": "uint256"
        }
      ],
      "stateMutability": "view",
      "type": "function"
    },
    {
      "inputs": [],
      "name": "decimals",
      "outputs": [
        {
          "internalType": "uint8",
          "name": "",
          "type": "uint8"
        }
      ],
      "stateMutability": "view",
      "type": "function"
    },
    {
      "inputs": [],
      "name": "defaultReferrer",
      "outputs": [
        {
          "internalType": "address",
          "name": "",
          "type": "address"
        }
      ],
      "stateMutability": "view",
      "type": "function"
    },
    {
      "inputs": [
        {
          "internalType": "address",
          "name": "",
          "type": "address"
        }
      ],
      "name": "deodStaked",
      "outputs": [
        {
          "internalType": "uint256",
          "name": "",
          "type": "uint256"
        }
      ],
      "stateMutability": "view",
      "type": "function"
    },
    {
      "inputs": [],
      "name": "deodToken",
      "outputs": [
        {
          "internalType": "contract IERC20",
          "name": "",
          "type": "address"
        }
      ],
      "stateMutability": "view",
      "type": "function"
    },
    {
      "inputs": [
        {
          "internalType": "address",
          "name": "",
          "type": "address"
        }
      ],
      "name": "downlineCount",
      "outputs": [
        {
          "internalType": "uint256",
          "name": "",
          "type": "uint256"
        }
      ],
      "stateMutability": "view",
      "type": "function"
    },
    {
      "inputs": [],
      "name": "getCurrentNefiPrice",
      "outputs": [
        {
          "internalType": "uint256",
          "name": "",
          "type": "uint256"
        }
      ],
      "stateMutability": "view",
      "type": "function"
    },
    {
      "inputs": [
        {
          "internalType": "address",
          "name": "_referrer",
          "type": "address"
        }
      ],
      "name": "getDirectReferrals",
      "outputs": [
        {
          "internalType": "address[]",
          "name": "",
          "type": "address[]"
        }
      ],
      "stateMutability": "view",
      "type": "function"
    },
    {
      "inputs": [],
      "name": "name",
      "outputs": [
        {
          "internalType": "string",
          "name": "",
          "type": "string"
        }
      ],
      "stateMutability": "view",
      "type": "function"
    },
    {
      "inputs": [],
      "name": "nextBuyId",
      "outputs": [
        {
          "internalType": "uint256",
          "name": "",
          "type": "uint256"
        }
      ],
      "stateMutability": "view",
      "type": "function"
    },
    {
      "inputs": [],
      "name": "nextSellId",
      "outputs": [
        {
          "internalType": "uint256",
          "name": "",
          "type": "uint256"
        }
      ],
      "stateMutability": "view",
      "type": "function"
    },
    {
      "inputs": [],
      "name": "nullAddress",
      "outputs": [
        {
          "internalType": "address",
          "name": "",
          "type": "address"
        }
      ],
      "stateMutability": "view",
      "type": "function"
    },
    {
      "inputs": [
        {
          "internalType": "address",
          "name": "",
          "type": "address"
        }
      ],
      "name": "referral",
      "outputs": [
        {
          "internalType": "address",
          "name": "",
          "type": "address"
        }
      ],
      "stateMutability": "view",
      "type": "function"
    },
    {
      "inputs": [
        {
          "internalType": "uint256",
          "name": "",
          "type": "uint256"
        }
      ],
      "name": "referralRewards",
      "outputs": [
        {
          "internalType": "uint256",
          "name": "",
          "type": "uint256"
        }
      ],
      "stateMutability": "view",
      "type": "function"
    },
    {
      "inputs": [
        {
          "internalType": "address",
          "name": "",
          "type": "address"
        }
      ],
      "name": "referralRewardsAccumulated",
      "outputs": [
        {
          "internalType": "uint256",
          "name": "",
          "type": "uint256"
        }
      ],
      "stateMutability": "view",
      "type": "function"
    },
    {
      "inputs": [
        {
          "internalType": "address",
          "name": "",
          "type": "address"
        },
        {
          "internalType": "uint256",
          "name": "",
          "type": "uint256"
        }
      ],
      "name": "referrals",
      "outputs": [
        {
          "internalType": "address",
          "name": "",
          "type": "address"
        }
      ],
      "stateMutability": "view",
      "type": "function"
    },
    {
      "inputs": [
        {
          "internalType": "uint256",
          "name": "",
          "type": "uint256"
        }
      ],
      "name": "sellHistory",
      "outputs": [
        {
          "internalType": "address",
          "name": "seller",
          "type": "address"
        },
        {
          "internalType": "uint256",
          "name": "amountInNefi",
          "type": "uint256"
        },
        {
          "internalType": "uint256",
          "name": "deodReturned",
          "type": "uint256"
        },
        {
          "internalType": "uint256",
          "name": "timestamp",
          "type": "uint256"
        },
        {
          "internalType": "uint256",
          "name": "sellId",
          "type": "uint256"
        }
      ],
      "stateMutability": "view",
      "type": "function"
    },
    {
      "inputs": [
        {
          "internalType": "uint256",
          "name": "amountIn",
          "type": "uint256"
        }
      ],
      "name": "sellNefi",
      "outputs": [],
      "stateMutability": "nonpayable",
      "type": "function"
    },
    {
      "inputs": [
        {
          "internalType": "address",
          "name": "",
          "type": "address"
        },
        {
          "internalType": "uint256",
          "name": "",
          "type": "uint256"
        }
      ],
      "name": "sellRecordsByUser",
      "outputs": [
        {
          "internalType": "uint256",
          "name": "amount",
          "type": "uint256"
        },
        {
          "internalType": "uint256",
          "name": "timestamp",
          "type": "uint256"
        },
        {
          "internalType": "uint256",
          "name": "transactionId",
          "type": "uint256"
        }
      ],
      "stateMutability": "view",
      "type": "function"
    },
    {
      "inputs": [],
      "name": "symbol",
      "outputs": [
        {
          "internalType": "string",
          "name": "",
          "type": "string"
        }
      ],
      "stateMutability": "view",
      "type": "function"
    },
    {
      "inputs": [],
      "name": "totalDeodStaked",
      "outputs": [
        {
          "internalType": "uint256",
          "name": "",
          "type": "uint256"
        }
      ],
      "stateMutability": "view",
      "type": "function"
    },
    {
      "inputs": [],
      "name": "totalSupply",
      "outputs": [
        {
          "internalType": "uint256",
          "name": "",
          "type": "uint256"
        }
      ],
      "stateMutability": "view",
      "type": "function"
    },
    {
      "inputs": [
        {
          "internalType": "address",
          "name": "recipient",
          "type": "address"
        },
        {
          "internalType": "uint256",
          "name": "amount",
          "type": "uint256"
        }
      ],
      "name": "transfer",
      "outputs": [
        {
          "internalType": "bool",
          "name": "",
          "type": "bool"
        }
      ],
      "stateMutability": "nonpayable",
      "type": "function"
    },
    {
      "inputs": [
        {
          "internalType": "address",
          "name": "sender",
          "type": "address"
        },
        {
          "internalType": "address",
          "name": "recipient",
          "type": "address"
        },
        {
          "internalType": "uint256",
          "name": "amount",
          "type": "uint256"
        }
      ],
      "name": "transferFrom",
      "outputs": [
        {
          "internalType": "bool",
          "name": "",
          "type": "bool"
        }
      ],
      "stateMutability": "nonpayable",
      "type": "function"
    },
    {
      "inputs": [
        {
          "internalType": "address",
          "name": "",
          "type": "address"
        }
      ],
      "name": "unclaimedNefiTokens",
      "outputs": [
        {
          "internalType": "uint256",
          "name": "",
          "type": "uint256"
        }
      ],
      "stateMutability": "view",
      "type": "function"
    }
  ],
  "bytecode": "0x60a0604052731234567890123456789012345678901234567890600460006101000a81548173ffffffffffffffffffffffffffffffffffffffff021916908373ffffffffffffffffffffffffffffffffffffffff16021790555061dead600560006101000a81548173ffffffffffffffffffffffffffffffffffffffff021916908373ffffffffffffffffffffffffffffffffffffffff1602179055506040518060c00160405280600760ff168152602001600160ff168152602001600160ff168152602001600160ff168152602001600160ff168152602001600160ff168152506008906006620000f39291906200016f565b50603c601c553480156200010657600080fd5b50604051620043543803806200435483398181016040528101906200012c919062000242565b60016000819055508073ffffffffffffffffffffffffffffffffffffffff1660808173ffffffffffffffffffffffffffffffffffffffff16815250505062000274565b8260068101928215620001a6579160200282015b82811115620001a5578251829060ff1690559160200191906001019062000183565b5b509050620001b59190620001b9565b5090565b5b80821115620001d4576000816000905550600101620001ba565b5090565b600080fd5b600073ffffffffffffffffffffffffffffffffffffffff82169050919050565b60006200020a82620001dd565b9050919050565b6200021c81620001fd565b81146200022857600080fd5b50565b6000815190506200023c8162000211565b92915050565b6000602082840312156200025b576200025a620001d8565b5b60006200026b848285016200022b565b91505092915050565b6080516140a8620002ac60003960008181610ccb0152818161148c0152818161156b01528181611be00152611e3f01526140a86000f3fe608060405234801561001057600080fd5b50600436106102065760003560e01c806374adc23d1161011a578063c718e5d8116100ad578063e697b5d81161007c578063e697b5d814610683578063e8cdcf79146106b3578063eeda149c146106cf578063f446a004146106eb578063f48583f71461072057610206565b8063c718e5d8146105e9578063d2c8e0e514610605578063dd62ed3e14610635578063df9fb6921461066557610206565b8063a4297a5a116100e9578063a4297a5a1461054b578063a9059cbb14610569578063b36ad34714610599578063bdac2a38146105cb57610206565b806374adc23d146104af5780638643bfe3146104df57806391b331251461050f57806395d89b411461052d57610206565b8063313ce5671161019d578063551edf901161016c578063551edf90146103f55780636e16de47146104135780636e4adaa71461043157806370a082311461044f5780637247959a1461047f57610206565b8063313ce5671461035b5780633a4741dd1461037957806346e04a2f146103a95780634b6d10b9146103c557610206565b806323b872dd116101d957806323b872dd146102a9578063285cf862146102d95780632aab514e1461030957806330cfb08a1461032757610206565b806306fdde031461020b578063095ea7b3146102295780630e51817d1461025957806318160ddd1461028b575b600080fd5b610213610750565b6040516102209190612d39565b60405180910390f35b610243600480360381019061023e9190612df4565b61078d565b6040516102509190612e4f565b60405180910390f35b610273600480360381019061026e9190612df4565b6107a4565b60405161028293929190612e79565b60405180910390f35b6102936107eb565b6040516102a09190612eb0565b60405180910390f35b6102c360048036038101906102be9190612ecb565b6107f5565b6040516102d09190612e4f565b60405180910390f35b6102f360048036038101906102ee9190612f1e565b61095e565b6040516103009190612eb0565b60405180910390f35b610311610976565b60405161031e9190612eb0565b60405180910390f35b610341600480360381019061033c9190612f4b565b61097c565b604051610352959493929190612f87565b60405180910390f35b6103636109d2565b6040516103709190612ff6565b60405180910390f35b610393600480360381019061038e9190612f1e565b6109db565b6040516103a09190612eb0565b60405180910390f35b6103c360048036038101906103be9190612f4b565b6109f3565b005b6103df60048036038101906103da9190612f4b565b610c82565b6040516103ec9190612eb0565b60405180910390f35b6103fd610c9d565b60405161040a9190613011565b60405180910390f35b61041b610cc3565b6040516104289190612eb0565b60405180910390f35b610439610cc9565b604051610446919061308b565b60405180910390f35b61046960048036038101906104649190612f1e565b610ced565b6040516104769190612eb0565b60405180910390f35b61049960048036038101906104949190612f1e565b610d36565b6040516104a69190613011565b60405180910390f35b6104c960048036038101906104c49190612f1e565b610d69565b6040516104d69190612eb0565b60405180910390f35b6104f960048036038101906104f49190612f1e565b610d81565b6040516105069190612eb0565b60405180910390f35b610517610d99565b6040516105249190613011565b60405180910390f35b610535610dbf565b6040516105429190612d39565b60405180910390f35b610553610dfc565b6040516105609190612eb0565b60405180910390f35b610583600480360381019061057e9190612df4565b610e02565b6040516105909190612e4f565b60405180910390f35b6105b360048036038101906105ae9190612df4565b610e19565b6040516105c293929190612e79565b60405180910390f35b6105d3610e60565b6040516105e09190612eb0565b60405180910390f35b61060360048036038101906105fe9190612f4b565b610ea4565b005b61061f600480360381019061061a9190612f1e565b6116b8565b60405161062c9190613164565b60405180910390f35b61064f600480360381019061064a9190613186565b611785565b60405161065c9190612eb0565b60405180910390f35b61066d61180c565b60405161067a9190612eb0565b60405180910390f35b61069d60048036038101906106989190612df4565b611812565b6040516106aa9190613011565b60405180910390f35b6106cd60048036038101906106c89190612f4b565b611860565b005b6106e960048036038101906106e49190612f1e565b611f69565b005b61070560048036038101906107009190612f4b565b61236e565b604051610717969594939291906131c6565b60405180910390f35b61073a60048036038101906107359190612f1e565b6123ea565b6040516107479190612eb0565b60405180910390f35b60606040518060400160405280600981526020017f4e656669546f6b656e0000000000000000000000000000000000000000000000815250905090565b600061079a338484612402565b6001905092915050565b601960205281600052604060002081815481106107c057600080fd5b9060005260206000209060030201600091509150508060000154908060010154908060020154905083565b6000600154905090565b60006108028484846125cb565b81600360008673ffffffffffffffffffffffffffffffffffffffff1673ffffffffffffffffffffffffffffffffffffffff16815260200190815260200160002060003373ffffffffffffffffffffffffffffffffffffffff1673ffffffffffffffffffffffffffffffffffffffff1681526020019081526020016000205410156108c1576040517f08c379a00000000000000000000000000000000000000000000000000000000081526004016108b890613299565b60405180910390fd5b610953843384600360008973ffffffffffffffffffffffffffffffffffffffff1673ffffffffffffffffffffffffffffffffffffffff16815260200190815260200160002060003373ffffffffffffffffffffffffffffffffffffffff1673ffffffffffffffffffffffffffffffffffffffff1681526020019081526020016000205461094e91906132e8565b612402565b600190509392505050565b60146020528060005260406000206000915090505481565b60165481565b60186020528060005260406000206000915090508060000160009054906101000a900473ffffffffffffffffffffffffffffffffffffffff16908060010154908060020154908060030154908060040154905085565b60006012905090565b60126020528060005260406000206000915090505481565b6109fb612841565b60008111610a3e576040517f08c379a0000000000000000000000000000000000000000000000000000000008152600401610a3590613368565b60405180910390fd5b610a4733612890565b15610a87576040517f08c379a0000000000000000000000000000000000000000000000000000000008152600401610a7e906133d4565b60405180910390fd5b6a05ca4ec2a79a7f6700000081600154610aa191906133f4565b1115610ae2576040517f08c379a0000000000000000000000000000000000000000000000000000000008152600401610ad990613474565b60405180910390fd5b80601360003373ffffffffffffffffffffffffffffffffffffffff1673ffffffffffffffffffffffffffffffffffffffff168152602001908152602001600020541015610b64576040517f08c379a0000000000000000000000000000000000000000000000000000000008152600401610b5b906134e0565b60405180910390fd5b80601360003373ffffffffffffffffffffffffffffffffffffffff1673ffffffffffffffffffffffffffffffffffffffff1681526020019081526020016000206000828254610bb391906132e8565b9250508190555080601460003373ffffffffffffffffffffffffffffffffffffffff1673ffffffffffffffffffffffffffffffffffffffff1681526020019081526020016000206000828254610c0991906133f4565b925050819055508060076000828254610c2291906132e8565b92505081905550610c3330826128a9565b610c3e3033836125cb565b7f896e034966eaaf1adc54acc0f257056febbd300c9e47182cf761982cf1f5e4303382604051610c6f929190613500565b60405180910390a1610c7f6129f1565b50565b60088160068110610c9257600080fd5b016000915090505481565b600560009054906101000a900473ffffffffffffffffffffffffffffffffffffffff1681565b60075481565b7f000000000000000000000000000000000000000000000000000000000000000081565b6000600260008373ffffffffffffffffffffffffffffffffffffffff1673ffffffffffffffffffffffffffffffffffffffff168152602001908152602001600020549050919050565b600e6020528060005260406000206000915054906101000a900473ffffffffffffffffffffffffffffffffffffffff1681565b60106020528060005260406000206000915090505481565b600f6020528060005260406000206000915090505481565b600460009054906101000a900473ffffffffffffffffffffffffffffffffffffffff1681565b60606040518060400160405280600481526020017f4e45464900000000000000000000000000000000000000000000000000000000815250905090565b60065481565b6000610e0f3384846125cb565b6001905092915050565b601a6020528160005260406000208181548110610e3557600080fd5b9060005260206000209060030201600091509150508060000154908060010154908060020154905083565b60008060075403610e7b57670de0b6b3a76400009050610ea1565b600754670de0b6b3a7640000600654610e949190613529565b610e9e919061359a565b90505b90565b610eac612841565b6040518060600160405280602e8152602001614045602e9139601c54601b60003373ffffffffffffffffffffffffffffffffffffffff1673ffffffffffffffffffffffffffffffffffffffff16815260200190815260200160002054610f1291906133f4565b4210158190610f57576040517f08c379a0000000000000000000000000000000000000000000000000000000008152600401610f4e9190612d39565b60405180910390fd5b50600082118015610f72575069021e19e0c9bab24000008211155b610fb1576040517f08c379a0000000000000000000000000000000000000000000000000000000008152600401610fa89061363d565b60405180910390fd5b610fba33612890565b15610ffa576040517f08c379a0000000000000000000000000000000000000000000000000000000008152600401610ff1906133d4565b60405180910390fd5b6000611004610e60565b9050600060646003856110179190613529565b611021919061359a565b90506000818561103191906132e8565b9050806006600082825461104591906133f4565b92505081905550600083670de0b6b3a7640000876110639190613529565b61106d919061359a565b9050600060646046836110809190613529565b61108a919061359a565b90506000606460128461109d9190613529565b6110a7919061359a565b905060006064600c856110ba9190613529565b6110c4919061359a565b905080836110d291906133f4565b600760008282546110e391906133f4565b9250508190555088601260003373ffffffffffffffffffffffffffffffffffffffff1673ffffffffffffffffffffffffffffffffffffffff168152602001908152602001600020600082825461113991906133f4565b9250508190555082601360003373ffffffffffffffffffffffffffffffffffffffff1673ffffffffffffffffffffffffffffffffffffffff168152602001908152602001600020600082825461118f91906133f4565b925050819055506000600e60003373ffffffffffffffffffffffffffffffffffffffff1673ffffffffffffffffffffffffffffffffffffffff16815260200190815260200160002060009054906101000a900473ffffffffffffffffffffffffffffffffffffffff169050600073ffffffffffffffffffffffffffffffffffffffff168173ffffffffffffffffffffffffffffffffffffffff160361125457600460009054906101000a900473ffffffffffffffffffffffffffffffffffffffff1690505b61125f8183876129fb565b42601b60003373ffffffffffffffffffffffffffffffffffffffff1673ffffffffffffffffffffffffffffffffffffffff168152602001908152602001600020819055506000601560008154809291906112b89061365d565b9190505590506040518060c001604052803373ffffffffffffffffffffffffffffffffffffffff1681526020018c81526020018681526020018373ffffffffffffffffffffffffffffffffffffffff16815260200142815260200160155481525060176000601554815260200190815260200160002060008201518160000160006101000a81548173ffffffffffffffffffffffffffffffffffffffff021916908373ffffffffffffffffffffffffffffffffffffffff160217905550602082015181600101556040820151816002015560608201518160030160006101000a81548173ffffffffffffffffffffffffffffffffffffffff021916908373ffffffffffffffffffffffffffffffffffffffff1602179055506080820151816004015560a08201518160050155905050601960003373ffffffffffffffffffffffffffffffffffffffff1673ffffffffffffffffffffffffffffffffffffffff16815260200190815260200160002060405180606001604052808d815260200142815260200183815250908060018154018082558091505060019003906000526020600020906003020160009091909190915060008201518160000155602082015181600101556040820151816002015550507f000000000000000000000000000000000000000000000000000000000000000073ffffffffffffffffffffffffffffffffffffffff166323b872dd33308e6040518463ffffffff1660e01b81526004016114e7939291906136a5565b6020604051808303816000875af1158015611506573d6000803e3d6000fd5b505050506040513d601f19601f8201168201806040525081019061152a9190613708565b611569576040517f08c379a000000000000000000000000000000000000000000000000000000000815260040161156090613781565b60405180910390fd5b7f000000000000000000000000000000000000000000000000000000000000000073ffffffffffffffffffffffffffffffffffffffff1663a9059cbb600560009054906101000a900473ffffffffffffffffffffffffffffffffffffffff168a6040518363ffffffff1660e01b81526004016115e6929190613500565b6020604051808303816000875af1158015611605573d6000803e3d6000fd5b505050506040513d601f19601f820116820180604052508101906116299190613708565b611668576040517f08c379a000000000000000000000000000000000000000000000000000000000815260040161165f90613781565b60405180910390fd5b7f1329b64c278b306fc7b913b53a5a62dca04836df5b0e48cdc7f64ccb96db7cf433868b60405161169b939291906137a1565b60405180910390a1505050505050505050506116b56129f1565b50565b6060601160008373ffffffffffffffffffffffffffffffffffffffff1673ffffffffffffffffffffffffffffffffffffffff16815260200190815260200160002080548060200260200160405190810160405280929190818152602001828054801561177957602002820191906000526020600020905b8160009054906101000a900473ffffffffffffffffffffffffffffffffffffffff1673ffffffffffffffffffffffffffffffffffffffff168152602001906001019080831161172f575b50505050509050919050565b6000600360008473ffffffffffffffffffffffffffffffffffffffff1673ffffffffffffffffffffffffffffffffffffffff16815260200190815260200160002060008373ffffffffffffffffffffffffffffffffffffffff1673ffffffffffffffffffffffffffffffffffffffff16815260200190815260200160002054905092915050565b60155481565b6011602052816000526040600020818154811061182e57600080fd5b906000526020600020016000915091509054906101000a900473ffffffffffffffffffffffffffffffffffffffff1681565b611868612841565b6040518060600160405280602f8152602001614016602f9139601c54601b60003373ffffffffffffffffffffffffffffffffffffffff1673ffffffffffffffffffffffffffffffffffffffff168152602001908152602001600020546118ce91906133f4565b4210158190611913576040517f08c379a000000000000000000000000000000000000000000000000000000000815260040161190a9190612d39565b60405180910390fd5b5060008211611957576040517f08c379a000000000000000000000000000000000000000000000000000000000815260040161194e90613824565b60405180910390fd5b6000611961610e60565b905082601360003373ffffffffffffffffffffffffffffffffffffffff1673ffffffffffffffffffffffffffffffffffffffff1681526020019081526020016000205410156119e5576040517f08c379a00000000000000000000000000000000000000000000000000000000081526004016119dc906138b6565b60405180910390fd5b6119ee33612890565b15611a2e576040517f08c379a0000000000000000000000000000000000000000000000000000000008152600401611a25906133d4565b60405180910390fd5b6000670de0b6b3a76400008285611a459190613529565b611a4f919061359a565b905060006064600f83611a629190613529565b611a6c919061359a565b905060008183611a7c91906132e8565b905060006002601260003373ffffffffffffffffffffffffffffffffffffffff1673ffffffffffffffffffffffffffffffffffffffff16815260200190815260200160002054611acc9190613529565b905080821115611b11576040517f08c379a0000000000000000000000000000000000000000000000000000000008152600401611b0890613948565b60405180910390fd5b86601360003373ffffffffffffffffffffffffffffffffffffffff1673ffffffffffffffffffffffffffffffffffffffff1681526020019081526020016000206000828254611b6091906132e8565b925050819055508660076000828254611b7991906132e8565b925050819055508160066000828254611b9291906132e8565b9250508190555042601b60003373ffffffffffffffffffffffffffffffffffffffff1673ffffffffffffffffffffffffffffffffffffffff16815260200190815260200160002081905550817f000000000000000000000000000000000000000000000000000000000000000073ffffffffffffffffffffffffffffffffffffffff166370a08231306040518263ffffffff1660e01b8152600401611c379190613011565b602060405180830381865afa158015611c54573d6000803e3d6000fd5b505050506040513d601f19601f82011682018060405250810190611c78919061397d565b1015611cb9576040517f08c379a0000000000000000000000000000000000000000000000000000000008152600401611cb0906139f6565b60405180910390fd5b600060166000815480929190611cce9061365d565b9190505590506040518060a001604052803373ffffffffffffffffffffffffffffffffffffffff16815260200189815260200184815260200142815260200160165481525060186000601654815260200190815260200160002060008201518160000160006101000a81548173ffffffffffffffffffffffffffffffffffffffff021916908373ffffffffffffffffffffffffffffffffffffffff16021790555060208201518160010155604082015181600201556060820151816003015560808201518160040155905050601a60003373ffffffffffffffffffffffffffffffffffffffff1673ffffffffffffffffffffffffffffffffffffffff16815260200190815260200160002060405180606001604052808a815260200142815260200183815250908060018154018082558091505060019003906000526020600020906003020160009091909190915060008201518160000155602082015181600101556040820151816002015550507f000000000000000000000000000000000000000000000000000000000000000073ffffffffffffffffffffffffffffffffffffffff1663a9059cbb33856040518363ffffffff1660e01b8152600401611e98929190613500565b6020604051808303816000875af1158015611eb7573d6000803e3d6000fd5b505050506040513d601f19601f82011682018060405250810190611edb9190613708565b611f1a576040517f08c379a0000000000000000000000000000000000000000000000000000000008152600401611f1190613781565b60405180910390fd5b7f17aa01155b41d9bc30f0f211f9bd07ae7a0789ec7c60d7ab25709f728ac392fd33898886604051611f4f9493929190613a16565b60405180910390a150505050505050611f666129f1565b50565b808073ffffffffffffffffffffffffffffffffffffffff16600e60003373ffffffffffffffffffffffffffffffffffffffff1673ffffffffffffffffffffffffffffffffffffffff16815260200190815260200160002060009054906101000a900473ffffffffffffffffffffffffffffffffffffffff1673ffffffffffffffffffffffffffffffffffffffff1603612037576040517f08c379a000000000000000000000000000000000000000000000000000000000815260040161202e90613aa7565b60405180910390fd5b61204082612890565b15612080576040517f08c379a000000000000000000000000000000000000000000000000000000000815260040161207790613b13565b60405180910390fd5b600073ffffffffffffffffffffffffffffffffffffffff16600e60003373ffffffffffffffffffffffffffffffffffffffff1673ffffffffffffffffffffffffffffffffffffffff16815260200190815260200160002060009054906101000a900473ffffffffffffffffffffffffffffffffffffffff1673ffffffffffffffffffffffffffffffffffffffff161461214e576040517f08c379a000000000000000000000000000000000000000000000000000000000815260040161214590613b7f565b60405180910390fd5b3373ffffffffffffffffffffffffffffffffffffffff168273ffffffffffffffffffffffffffffffffffffffff16036121bc576040517f08c379a00000000000000000000000000000000000000000000000000000000081526004016121b390613beb565b60405180910390fd5b81600e60003373ffffffffffffffffffffffffffffffffffffffff1673ffffffffffffffffffffffffffffffffffffffff16815260200190815260200160002060006101000a81548173ffffffffffffffffffffffffffffffffffffffff021916908373ffffffffffffffffffffffffffffffffffffffff160217905550601160008373ffffffffffffffffffffffffffffffffffffffff1673ffffffffffffffffffffffffffffffffffffffff168152602001908152602001600020339080600181540180825580915050600190039060005260206000200160009091909190916101000a81548173ffffffffffffffffffffffffffffffffffffffff021916908373ffffffffffffffffffffffffffffffffffffffff1602179055506001601060008473ffffffffffffffffffffffffffffffffffffffff1673ffffffffffffffffffffffffffffffffffffffff168152602001908152602001600020600082825461232a91906133f4565b925050819055507f5f1ca2fcc108b751843a763e60d2201f593516109d7dbb1b700468f2d4190bb73383604051612362929190613c0b565b60405180910390a15050565b60176020528060005260406000206000915090508060000160009054906101000a900473ffffffffffffffffffffffffffffffffffffffff16908060010154908060020154908060030160009054906101000a900473ffffffffffffffffffffffffffffffffffffffff16908060040154908060050154905086565b60136020528060005260406000206000915090505481565b600073ffffffffffffffffffffffffffffffffffffffff168373ffffffffffffffffffffffffffffffffffffffff1603612471576040517f08c379a000000000000000000000000000000000000000000000000000000000815260040161246890613ca6565b60405180910390fd5b600073ffffffffffffffffffffffffffffffffffffffff168273ffffffffffffffffffffffffffffffffffffffff16036124e0576040517f08c379a00000000000000000000000000000000000000000000000000000000081526004016124d790613d38565b60405180910390fd5b80600360008573ffffffffffffffffffffffffffffffffffffffff1673ffffffffffffffffffffffffffffffffffffffff16815260200190815260200160002060008473ffffffffffffffffffffffffffffffffffffffff1673ffffffffffffffffffffffffffffffffffffffff168152602001908152602001600020819055508173ffffffffffffffffffffffffffffffffffffffff168373ffffffffffffffffffffffffffffffffffffffff167f8c5be1e5ebec7d5bd14f71427d1e84f3dd0314c0f7b2291e5b200ac8c7c3b925836040516125be9190612eb0565b60405180910390a3505050565b600073ffffffffffffffffffffffffffffffffffffffff168373ffffffffffffffffffffffffffffffffffffffff160361263a576040517f08c379a000000000000000000000000000000000000000000000000000000000815260040161263190613dca565b60405180910390fd5b600073ffffffffffffffffffffffffffffffffffffffff168273ffffffffffffffffffffffffffffffffffffffff16036126a9576040517f08c379a00000000000000000000000000000000000000000000000000000000081526004016126a090613e5c565b60405180910390fd5b80600260008573ffffffffffffffffffffffffffffffffffffffff1673ffffffffffffffffffffffffffffffffffffffff16815260200190815260200160002054101561272b576040517f08c379a000000000000000000000000000000000000000000000000000000000815260040161272290613eee565b60405180910390fd5b80600260008573ffffffffffffffffffffffffffffffffffffffff1673ffffffffffffffffffffffffffffffffffffffff168152602001908152602001600020600082825461277a91906132e8565b9250508190555080600260008473ffffffffffffffffffffffffffffffffffffffff1673ffffffffffffffffffffffffffffffffffffffff16815260200190815260200160002060008282546127d091906133f4565b925050819055508173ffffffffffffffffffffffffffffffffffffffff168373ffffffffffffffffffffffffffffffffffffffff167fddf252ad1be2c89b69c2b068fc378daa952ba7f163c4a11628f55a4df523b3ef836040516128349190612eb0565b60405180910390a3505050565b600260005403612886576040517f08c379a000000000000000000000000000000000000000000000000000000000815260040161287d90613f5a565b60405180910390fd5b6002600081905550565b600080823b905060008163ffffffff1611915050919050565b600073ffffffffffffffffffffffffffffffffffffffff168273ffffffffffffffffffffffffffffffffffffffff1603612918576040517f08c379a000000000000000000000000000000000000000000000000000000000815260040161290f90613fc6565b60405180910390fd5b806001600082825461292a91906133f4565b9250508190555080600260008473ffffffffffffffffffffffffffffffffffffffff1673ffffffffffffffffffffffffffffffffffffffff168152602001908152602001600020600082825461298091906133f4565b925050819055508173ffffffffffffffffffffffffffffffffffffffff16600073ffffffffffffffffffffffffffffffffffffffff167fddf252ad1be2c89b69c2b068fc378daa952ba7f163c4a11628f55a4df523b3ef836040516129e59190612eb0565b60405180910390a35050565b6001600081905550565b6000839050600083905060005b6006811015612ba757600073ffffffffffffffffffffffffffffffffffffffff168373ffffffffffffffffffffffffffffffffffffffff160315612ba7576000606460088360068110612a5e57612a5d613fe6565b5b015486612a6b9190613529565b612a75919061359a565b90508083612a8391906132e8565b925080601360008673ffffffffffffffffffffffffffffffffffffffff1673ffffffffffffffffffffffffffffffffffffffff1681526020019081526020016000206000828254612ad491906133f4565b9250508190555080600f60008673ffffffffffffffffffffffffffffffffffffffff1673ffffffffffffffffffffffffffffffffffffffff1681526020019081526020016000206000828254612b2a91906133f4565b92505081905550600e60008573ffffffffffffffffffffffffffffffffffffffff1673ffffffffffffffffffffffffffffffffffffffff16815260200190815260200160002060009054906101000a900473ffffffffffffffffffffffffffffffffffffffff169350508080612b9f9061365d565b915050612a08565b506000811115612ca2578060136000600460009054906101000a900473ffffffffffffffffffffffffffffffffffffffff1673ffffffffffffffffffffffffffffffffffffffff1673ffffffffffffffffffffffffffffffffffffffff1681526020019081526020016000206000828254612c2291906133f4565b9250508190555080600f6000600460009054906101000a900473ffffffffffffffffffffffffffffffffffffffff1673ffffffffffffffffffffffffffffffffffffffff1673ffffffffffffffffffffffffffffffffffffffff1681526020019081526020016000206000828254612c9a91906133f4565b925050819055505b5050505050565b600081519050919050565b600082825260208201905092915050565b60005b83811015612ce3578082015181840152602081019050612cc8565b60008484015250505050565b6000601f19601f8301169050919050565b6000612d0b82612ca9565b612d158185612cb4565b9350612d25818560208601612cc5565b612d2e81612cef565b840191505092915050565b60006020820190508181036000830152612d538184612d00565b905092915050565b600080fd5b600073ffffffffffffffffffffffffffffffffffffffff82169050919050565b6000612d8b82612d60565b9050919050565b612d9b81612d80565b8114612da657600080fd5b50565b600081359050612db881612d92565b92915050565b6000819050919050565b612dd181612dbe565b8114612ddc57600080fd5b50565b600081359050612dee81612dc8565b92915050565b60008060408385031215612e0b57612e0a612d5b565b5b6000612e1985828601612da9565b9250506020612e2a85828601612ddf565b9150509250929050565b60008115159050919050565b612e4981612e34565b82525050565b6000602082019050612e646000830184612e40565b92915050565b612e7381612dbe565b82525050565b6000606082019050612e8e6000830186612e6a565b612e9b6020830185612e6a565b612ea86040830184612e6a565b949350505050565b6000602082019050612ec56000830184612e6a565b92915050565b600080600060608486031215612ee457612ee3612d5b565b5b6000612ef286828701612da9565b9350506020612f0386828701612da9565b9250506040612f1486828701612ddf565b9150509250925092565b600060208284031215612f3457612f33612d5b565b5b6000612f4284828501612da9565b91505092915050565b600060208284031215612f6157612f60612d5b565b5b6000612f6f84828501612ddf565b91505092915050565b612f8181612d80565b82525050565b600060a082019050612f9c6000830188612f78565b612fa96020830187612e6a565b612fb66040830186612e6a565b612fc36060830185612e6a565b612fd06080830184612e6a565b9695505050505050565b600060ff82169050919050565b612ff081612fda565b82525050565b600060208201905061300b6000830184612fe7565b92915050565b60006020820190506130266000830184612f78565b92915050565b6000819050919050565b600061305161304c61304784612d60565b61302c565b612d60565b9050919050565b600061306382613036565b9050919050565b600061307582613058565b9050919050565b6130858161306a565b82525050565b60006020820190506130a0600083018461307c565b92915050565b600081519050919050565b600082825260208201905092915050565b6000819050602082019050919050565b6130db81612d80565b82525050565b60006130ed83836130d2565b60208301905092915050565b6000602082019050919050565b6000613111826130a6565b61311b81856130b1565b9350613126836130c2565b8060005b8381101561315757815161313e88826130e1565b9750613149836130f9565b92505060018101905061312a565b5085935050505092915050565b6000602082019050818103600083015261317e8184613106565b905092915050565b6000806040838503121561319d5761319c612d5b565b5b60006131ab85828601612da9565b92505060206131bc85828601612da9565b9150509250929050565b600060c0820190506131db6000830189612f78565b6131e86020830188612e6a565b6131f56040830187612e6a565b6132026060830186612f78565b61320f6080830185612e6a565b61321c60a0830184612e6a565b979650505050505050565b7f45524332303a207472616e7366657220616d6f756e742065786365656473206160008201527f6c6c6f77616e6365000000000000000000000000000000000000000000000000602082015250565b6000613283602883612cb4565b915061328e82613227565b604082019050919050565b600060208201905081810360008301526132b281613276565b9050919050565b7f4e487b7100000000000000000000000000000000000000000000000000000000600052601160045260246000fd5b60006132f382612dbe565b91506132fe83612dbe565b9250828203905081811115613316576133156132b9565b5b92915050565b7f43616e6e6f7420636c61696d2030204e65666900000000000000000000000000600082015250565b6000613352601383612cb4565b915061335d8261331c565b602082019050919050565b6000602082019050818103600083015261338181613345565b9050919050565b7f43616c6c6572206d75737420626520616e20454f410000000000000000000000600082015250565b60006133be601583612cb4565b91506133c982613388565b602082019050919050565b600060208201905081810360008301526133ed816133b1565b9050919050565b60006133ff82612dbe565b915061340a83612dbe565b9250828201905080821115613422576134216132b9565b5b92915050565b7f4d617820737570706c7920657863656564656400000000000000000000000000600082015250565b600061345e601383612cb4565b915061346982613428565b602082019050919050565b6000602082019050818103600083015261348d81613451565b9050919050565b7f4e6f7420656e6f75676820756e636c61696d656420746f6b656e730000000000600082015250565b60006134ca601b83612cb4565b91506134d582613494565b602082019050919050565b600060208201905081810360008301526134f9816134bd565b9050919050565b60006040820190506135156000830185612f78565b6135226020830184612e6a565b9392505050565b600061353482612dbe565b915061353f83612dbe565b925082820261354d81612dbe565b91508282048414831517613564576135636132b9565b5b5092915050565b7f4e487b7100000000000000000000000000000000000000000000000000000000600052601260045260246000fd5b60006135a582612dbe565b91506135b083612dbe565b9250826135c0576135bf61356b565b5b828204905092915050565b7f416d6f756e74206d7573742062652067726561746572207468616e203020616e60008201527f64206c657373207468616e206f7220657175616c20746f203130303030000000602082015250565b6000613627603d83612cb4565b9150613632826135cb565b604082019050919050565b600060208201905081810360008301526136568161361a565b9050919050565b600061366882612dbe565b91507fffffffffffffffffffffffffffffffffffffffffffffffffffffffffffffffff820361369a576136996132b9565b5b600182019050919050565b60006060820190506136ba6000830186612f78565b6136c76020830185612f78565b6136d46040830184612e6a565b949350505050565b6136e581612e34565b81146136f057600080fd5b50565b600081519050613702816136dc565b92915050565b60006020828403121561371e5761371d612d5b565b5b600061372c848285016136f3565b91505092915050565b7f546f6b656e207472616e73666572206661696c65640000000000000000000000600082015250565b600061376b601583612cb4565b915061377682613735565b602082019050919050565b6000602082019050818103600083015261379a8161375e565b9050919050565b60006060820190506137b66000830186612f78565b6137c36020830185612e6a565b6137d06040830184612e6a565b949350505050565b7f416d6f756e74206d7573742062652067726561746572207468616e2030000000600082015250565b600061380e601d83612cb4565b9150613819826137d8565b602082019050919050565b6000602082019050818103600083015261383d81613801565b9050919050565b7f4e6f7420656e6f75676820756e636c61696d656420746f6b656e7320746f207360008201527f656c6c0000000000000000000000000000000000000000000000000000000000602082015250565b60006138a0602383612cb4565b91506138ab82613844565b604082019050919050565b600060208201905081810360008301526138cf81613893565b9050919050565b7f43616e6e6f74207769746864726177206d6f7265207468616e203278206f662060008201527f7374616b65642044454f44000000000000000000000000000000000000000000602082015250565b6000613932602b83612cb4565b915061393d826138d6565b604082019050919050565b6000602082019050818103600083015261396181613925565b9050919050565b60008151905061397781612dc8565b92915050565b60006020828403121561399357613992612d5b565b5b60006139a184828501613968565b91505092915050565b7f4e6f7420656e6f7567682044454f4420696e20636f6e74726163740000000000600082015250565b60006139e0601b83612cb4565b91506139eb826139aa565b602082019050919050565b60006020820190508181036000830152613a0f816139d3565b9050919050565b6000608082019050613a2b6000830187612f78565b613a386020830186612e6a565b613a456040830185612e6a565b613a526060830184612e6a565b95945050505050565b7f43616e6e6f7420736574207265636970726f63616c2072656665727265720000600082015250565b6000613a91601e83612cb4565b9150613a9c82613a5b565b602082019050919050565b60006020820190508181036000830152613ac081613a84565b9050919050565b7f436f6e7472616374732063616e6e6f7420626520726566657272657273000000600082015250565b6000613afd601d83612cb4565b9150613b0882613ac7565b602082019050919050565b60006020820190508181036000830152613b2c81613af0565b9050919050565b7f526566657272657220616c726561647920736574000000000000000000000000600082015250565b6000613b69601483612cb4565b9150613b7482613b33565b602082019050919050565b60006020820190508181036000830152613b9881613b5c565b9050919050565b7f53656c662d726566657272616c2070726f686962697465640000000000000000600082015250565b6000613bd5601883612cb4565b9150613be082613b9f565b602082019050919050565b60006020820190508181036000830152613c0481613bc8565b9050919050565b6000604082019050613c206000830185612f78565b613c2d6020830184612f78565b9392505050565b7f45524332303a20617070726f76652066726f6d20746865207a65726f2061646460008201527f7265737300000000000000000000000000000000000000000000000000000000602082015250565b6000613c90602483612cb4565b9150613c9b82613c34565b604082019050919050565b60006020820190508181036000830152613cbf81613c83565b9050919050565b7f45524332303a20617070726f766520746f20746865207a65726f20616464726560008201527f7373000000000000000000000000000000000000000000000000000000000000602082015250565b6000613d22602283612cb4565b9150613d2d82613cc6565b604082019050919050565b60006020820190508181036000830152613d5181613d15565b9050919050565b7f45524332303a207472616e736665722066726f6d20746865207a65726f20616460008201527f6472657373000000000000000000000000000000000000000000000000000000602082015250565b6000613db4602583612cb4565b9150613dbf82613d58565b604082019050919050565b60006020820190508181036000830152613de381613da7565b9050919050565b7f45524332303a207472616e7366657220746f20746865207a65726f206164647260008201527f6573730000000000000000000000000000000000000000000000000000000000602082015250565b6000613e46602383612cb4565b9150613e5182613dea565b604082019050919050565b60006020820190508181036000830152613e7581613e39565b9050919050565b7f45524332303a207472616e7366657220616d6f756e742065786365656473206260008201527f616c616e63650000000000000000000000000000000000000000000000000000602082015250565b6000613ed8602683612cb4565b9150613ee382613e7c565b604082019050919050565b60006020820190508181036000830152613f0781613ecb565b9050919050565b7f5265656e7472616e637947756172643a207265656e7472616e742063616c6c00600082015250565b6000613f44601f83612cb4565b9150613f4f82613f0e565b602082019050919050565b60006020820190508181036000830152613f7381613f37565b9050919050565b7f45524332303a206d696e7420746f20746865207a65726f206164647265737300600082015250565b6000613fb0601f83612cb4565b9150613fbb82613f7a565b602082019050919050565b60006020820190508181036000830152613fdf81613fa3565b9050919050565b7f4e487b7100000000000000000000000000000000000000000000000000000000600052603260045260246000fdfe436f6f6c646f776e20666f722073656c6c696e67204e65666920746f6b656e73206e6f742070617373656420796574436f6f6c646f776e20666f7220627579696e67204e65666920746f6b656e73206e6f742070617373656420796574a2646970667358221220c6b0483c2284f88d2cf72ad225bfc7ed09d5675688fde1c77d3a86b3d587012464736f6c63430008140033",
  "linkReferences": {},
  "deployedLinkReferences": {}
}