{
  "_format": "hh-sol-artifact-1",
  "contractName": "Voting",
  "sourceName": "contracts/voting.sol",
  "abi": [
    {
      "inputs": [],
      "stateMutability": "nonpayable",
      "type": "constructor"
    },
    {
      "anonymous": false,
      "inputs": [
        {
          "indexed": false,
          "internalType": "address",
          "name": "account",
          "type": "address"
        }
      ],
      "name": "Paused",
      "type": "event"
    },
    {
      "anonymous": false,
      "inputs": [
        {
          "indexed": true,
          "internalType": "uint256",
          "name": "proposalId",
          "type": "uint256"
        },
        {
          "indexed": true,
          "internalType": "address",
          "name": "creator",
          "type": "address"
        }
      ],
      "name": "ProposalCreated",
      "type": "event"
    },
    {
      "anonymous": false,
      "inputs": [
        {
          "indexed": false,
          "internalType": "address",
          "name": "account",
          "type": "address"
        }
      ],
      "name": "Unpaused",
      "type": "event"
    },
    {
      "anonymous": false,
      "inputs": [
        {
          "indexed": true,
          "internalType": "address",
          "name": "voter",
          "type": "address"
        },
        {
          "indexed": true,
          "internalType": "uint256",
          "name": "proposalId",
          "type": "uint256"
        },
        {
          "indexed": false,
          "internalType": "bool",
          "name": "inFavor",
          "type": "bool"
        }
      ],
      "name": "VoteCast",
      "type": "event"
    },
    {
      "inputs": [
        {
          "internalType": "uint256",
          "name": "_proposalId",
          "type": "uint256"
        }
      ],
      "name": "checkProposalStatus",
      "outputs": [
        {
          "internalType": "bool",
          "name": "",
          "type": "bool"
        }
      ],
      "stateMutability": "view",
      "type": "function"
    },
    {
      "inputs": [
        {
          "internalType": "string",
          "name": "_description",
          "type": "string"
        },
        {
          "internalType": "uint256",
          "name": "_durationInMinutes",
          "type": "uint256"
        }
      ],
      "name": "createProposal",
      "outputs": [],
      "stateMutability": "nonpayable",
      "type": "function"
    },
    {
      "inputs": [],
      "name": "getAllProposals",
      "outputs": [
        {
          "internalType": "uint256[]",
          "name": "",
          "type": "uint256[]"
        }
      ],
      "stateMutability": "view",
      "type": "function"
    },
    {
      "inputs": [
        {
          "internalType": "uint256",
          "name": "_proposalId",
          "type": "uint256"
        }
      ],
      "name": "getProposalDetails",
      "outputs": [
        {
          "internalType": "uint256",
          "name": "id",
          "type": "uint256"
        },
        {
          "internalType": "string",
          "name": "description",
          "type": "string"
        },
        {
          "internalType": "uint256",
          "name": "votesFor",
          "type": "uint256"
        },
        {
          "internalType": "uint256",
          "name": "votesAgainst",
          "type": "uint256"
        },
        {
          "internalType": "uint256",
          "name": "expirationTime",
          "type": "uint256"
        },
        {
          "internalType": "uint256",
          "name": "timeLeft",
          "type": "uint256"
        }
      ],
      "stateMutability": "view",
      "type": "function"
    },
    {
      "inputs": [
        {
          "internalType": "uint256",
          "name": "_proposalId",
          "type": "uint256"
        }
      ],
      "name": "getVoteCounts",
      "outputs": [
        {
          "internalType": "uint256",
          "name": "votesFor",
          "type": "uint256"
        },
        {
          "internalType": "uint256",
          "name": "votesAgainst",
          "type": "uint256"
        }
      ],
      "stateMutability": "view",
      "type": "function"
    },
    {
      "inputs": [
        {
          "internalType": "uint256",
          "name": "_proposalId",
          "type": "uint256"
        },
        {
          "internalType": "address",
          "name": "_voter",
          "type": "address"
        }
      ],
      "name": "hasVotedOnProposal",
      "outputs": [
        {
          "internalType": "bool",
          "name": "",
          "type": "bool"
        }
      ],
      "stateMutability": "view",
      "type": "function"
    },
    {
      "inputs": [],
      "name": "owner",
      "outputs": [
        {
          "internalType": "address",
          "name": "",
          "type": "address"
        }
      ],
      "stateMutability": "view",
      "type": "function"
    },
    {
      "inputs": [],
      "name": "pauseContract",
      "outputs": [],
      "stateMutability": "nonpayable",
      "type": "function"
    },
    {
      "inputs": [],
      "name": "paused",
      "outputs": [
        {
          "internalType": "bool",
          "name": "",
          "type": "bool"
        }
      ],
      "stateMutability": "view",
      "type": "function"
    },
    {
      "inputs": [],
      "name": "proposalCounter",
      "outputs": [
        {
          "internalType": "uint256",
          "name": "",
          "type": "uint256"
        }
      ],
      "stateMutability": "view",
      "type": "function"
    },
    {
      "inputs": [
        {
          "internalType": "uint256",
          "name": "",
          "type": "uint256"
        }
      ],
      "name": "proposalIds",
      "outputs": [
        {
          "internalType": "uint256",
          "name": "",
          "type": "uint256"
        }
      ],
      "stateMutability": "view",
      "type": "function"
    },
    {
      "inputs": [
        {
          "internalType": "uint256",
          "name": "",
          "type": "uint256"
        }
      ],
      "name": "proposals",
      "outputs": [
        {
          "internalType": "uint256",
          "name": "id",
          "type": "uint256"
        },
        {
          "internalType": "string",
          "name": "description",
          "type": "string"
        },
        {
          "internalType": "uint128",
          "name": "votesFor",
          "type": "uint128"
        },
        {
          "internalType": "uint128",
          "name": "votesAgainst",
          "type": "uint128"
        },
        {
          "internalType": "uint256",
          "name": "expirationTime",
          "type": "uint256"
        }
      ],
      "stateMutability": "view",
      "type": "function"
    },
    {
      "inputs": [
        {
          "internalType": "address",
          "name": "_newOwner",
          "type": "address"
        }
      ],
      "name": "transferOwnership",
      "outputs": [],
      "stateMutability": "nonpayable",
      "type": "function"
    },
    {
      "inputs": [],
      "name": "unpauseContract",
      "outputs": [],
      "stateMutability": "nonpayable",
      "type": "function"
    },
    {
      "inputs": [
        {
          "internalType": "uint256",
          "name": "_proposalId",
          "type": "uint256"
        },
        {
          "internalType": "bool",
          "name": "_inFavor",
          "type": "bool"
        }
      ],
      "name": "vote",
      "outputs": [],
      "stateMutability": "nonpayable",
      "type": "function"
    },
    {
      "inputs": [
        {
          "internalType": "uint256",
          "name": "",
          "type": "uint256"
        },
        {
          "internalType": "address",
          "name": "",
          "type": "address"
        }
      ],
      "name": "votes",
      "outputs": [
        {
          "internalType": "bool",
          "name": "",
          "type": "bool"
        }
      ],
      "stateMutability": "view",
      "type": "function"
    }
  ],
  "bytecode": "0x608060405234801561001057600080fd5b5060008060006101000a81548160ff02191690831515021790555033600060016101000a81548173ffffffffffffffffffffffffffffffffffffffff021916908373ffffffffffffffffffffffffffffffffffffffff1602179055506000600181905550611f36806100836000396000f3fe608060405234801561001057600080fd5b50600436106101005760003560e01c80638da5cb5b11610097578063c9d27afe11610066578063c9d27afe146102b9578063cceb68f5146102d5578063d23254b4146102f3578063f2fde38b1461032357610100565b80638da5cb5b146102315780639b644a231461024f578063a201fac91461027f578063b33712c5146102af57610100565b8063439766ce116100d3578063439766ce146101a85780635c975abb146101b2578063600303d8146101d05780638a241f4c1461020057610100565b8063013cf08b146101055780630c0512e91461013957806335facf78146101575780633b4d01a714610173575b600080fd5b61011f600480360381019061011a91906114eb565b61033f565b604051610130959493929190611a31565b60405180910390f35b610141610435565b60405161014e9190611a16565b60405180910390f35b610171600480360381019061016c9190611497565b61043b565b005b61018d600480360381019061018891906114eb565b6105fd565b60405161019f96959493929190611a8b565b60405180910390f35b6101b061083f565b005b6101ba6108d9565b6040516101c7919061191b565b60405180910390f35b6101ea60048036038101906101e59190611514565b6108ef565b6040516101f7919061191b565b60405180910390f35b61021a600480360381019061021591906114eb565b6109b1565b604051610228929190611af3565b60405180910390f35b610239610ba8565b60405161024691906118de565b60405180910390f35b610269600480360381019061026491906114eb565b610bce565b6040516102769190611a16565b60405180910390f35b610299600480360381019061029491906114eb565b610bf2565b6040516102a6919061191b565b60405180910390f35b6102b7610c6e565b005b6102d360048036038101906102ce9190611550565b610d08565b005b6102dd610ffa565b6040516102ea91906118f9565b60405180910390f35b61030d60048036038101906103089190611514565b611052565b60405161031a919061191b565b60405180910390f35b61033d6004803603810190610338919061146e565b611081565b005b600260205280600052604060002060009150905080600001549080600101805461036890611da2565b80601f016020809104026020016040519081016040528092919081815260200182805461039490611da2565b80156103e15780601f106103b6576101008083540402835291602001916103e1565b820191906000526020600020905b8154815290600101906020018083116103c457829003601f168201915b5050505050908060020160009054906101000a90046fffffffffffffffffffffffffffffffff16908060020160109054906101000a90046fffffffffffffffffffffffffffffffff16908060030154905085565b60015481565b6104436111c5565b600060015490506001600081548092919061045d90611dd4565b91905055506040518060a0016040528082815260200184815260200160006fffffffffffffffffffffffffffffffff16815260200160006fffffffffffffffffffffffffffffffff168152602001603c846104b89190611c6e565b426104c39190611c18565b815250600260008381526020019081526020016000206000820151816000015560208201518160010190805190602001906104ff929190611324565b5060408201518160020160006101000a8154816fffffffffffffffffffffffffffffffff02191690836fffffffffffffffffffffffffffffffff16021790555060608201518160020160106101000a8154816fffffffffffffffffffffffffffffffff02191690836fffffffffffffffffffffffffffffffff1602179055506080820151816003015590505060048190806001815401808255809150506001900390600052602060002001600090919091909150553373ffffffffffffffffffffffffffffffffffffffff16817fcd423cc1203c0af96b9b3d68d73b3064a69de2d14450bb7181c5e5df2132b35860405160405180910390a3505050565b600060606000806000808680600260008381526020019081526020016000206000015414610660576040517f08c379a0000000000000000000000000000000000000000000000000000000008152600401610657906119b6565b60405180910390fd5b6000600260008a81526020019081526020016000206040518060a00160405290816000820154815260200160018201805461069a90611da2565b80601f01602080910402602001604051908101604052809291908181526020018280546106c690611da2565b80156107135780601f106106e857610100808354040283529160200191610713565b820191906000526020600020905b8154815290600101906020018083116106f657829003601f168201915b505050505081526020016002820160009054906101000a90046fffffffffffffffffffffffffffffffff166fffffffffffffffffffffffffffffffff166fffffffffffffffffffffffffffffffff1681526020016002820160109054906101000a90046fffffffffffffffffffffffffffffffff166fffffffffffffffffffffffffffffffff166fffffffffffffffffffffffffffffffff16815260200160038201548152505090506000428260800151116107d05760006107e1565b4282608001516107e09190611cc8565b5b90508160000151826020015183604001518460600151856080015185836fffffffffffffffffffffffffffffffff169350826fffffffffffffffffffffffffffffffff16925098509850985098509850985050505091939550919395565b600060019054906101000a900473ffffffffffffffffffffffffffffffffffffffff1673ffffffffffffffffffffffffffffffffffffffff163373ffffffffffffffffffffffffffffffffffffffff16146108cf576040517f08c379a00000000000000000000000000000000000000000000000000000000081526004016108c690611936565b60405180910390fd5b6108d761120f565b565b60008060009054906101000a900460ff16905090565b6000828060026000838152602001908152602001600020600001541461094a576040517f08c379a0000000000000000000000000000000000000000000000000000000008152600401610941906119b6565b60405180910390fd5b6003600085815260200190815260200160002060008473ffffffffffffffffffffffffffffffffffffffff1673ffffffffffffffffffffffffffffffffffffffff16815260200190815260200160002060009054906101000a900460ff1691505092915050565b6000808280600260008381526020019081526020016000206000015414610a0d576040517f08c379a0000000000000000000000000000000000000000000000000000000008152600401610a04906119b6565b60405180910390fd5b6000600260008681526020019081526020016000206040518060a001604052908160008201548152602001600182018054610a4790611da2565b80601f0160208091040260200160405190810160405280929190818152602001828054610a7390611da2565b8015610ac05780601f10610a9557610100808354040283529160200191610ac0565b820191906000526020600020905b815481529060010190602001808311610aa357829003601f168201915b505050505081526020016002820160009054906101000a90046fffffffffffffffffffffffffffffffff166fffffffffffffffffffffffffffffffff166fffffffffffffffffffffffffffffffff1681526020016002820160109054906101000a90046fffffffffffffffffffffffffffffffff166fffffffffffffffffffffffffffffffff166fffffffffffffffffffffffffffffffff168152602001600382015481525050905080604001518160600151816fffffffffffffffffffffffffffffffff169150806fffffffffffffffffffffffffffffffff169050935093505050915091565b600060019054906101000a900473ffffffffffffffffffffffffffffffffffffffff1681565b60048181548110610bde57600080fd5b906000526020600020016000915090505481565b60008180600260008381526020019081526020016000206000015414610c4d576040517f08c379a0000000000000000000000000000000000000000000000000000000008152600401610c44906119b6565b60405180910390fd5b60026000848152602001908152602001600020600301544210915050919050565b600060019054906101000a900473ffffffffffffffffffffffffffffffffffffffff1673ffffffffffffffffffffffffffffffffffffffff163373ffffffffffffffffffffffffffffffffffffffff1614610cfe576040517f08c379a0000000000000000000000000000000000000000000000000000000008152600401610cf590611936565b60405180910390fd5b610d06611271565b565b610d106111c5565b8180600260008381526020019081526020016000206000015414610d69576040517f08c379a0000000000000000000000000000000000000000000000000000000008152600401610d60906119b6565b60405180910390fd5b600060026000858152602001908152602001600020905080600301544210610dc6576040517f08c379a0000000000000000000000000000000000000000000000000000000008152600401610dbd90611976565b60405180910390fd5b6003600085815260200190815260200160002060003373ffffffffffffffffffffffffffffffffffffffff1673ffffffffffffffffffffffffffffffffffffffff16815260200190815260200160002060009054906101000a900460ff1615610e64576040517f08c379a0000000000000000000000000000000000000000000000000000000008152600401610e5b906119d6565b60405180910390fd5b8215610ed55760018160020160008282829054906101000a90046fffffffffffffffffffffffffffffffff16610e9a9190611bd2565b92506101000a8154816fffffffffffffffffffffffffffffffff02191690836fffffffffffffffffffffffffffffffff160217905550610f3c565b60018160020160108282829054906101000a90046fffffffffffffffffffffffffffffffff16610f059190611bd2565b92506101000a8154816fffffffffffffffffffffffffffffffff02191690836fffffffffffffffffffffffffffffffff1602179055505b60016003600086815260200190815260200160002060003373ffffffffffffffffffffffffffffffffffffffff1673ffffffffffffffffffffffffffffffffffffffff16815260200190815260200160002060006101000a81548160ff021916908315150217905550833373ffffffffffffffffffffffffffffffffffffffff167fd356173ae8eeea8691aee4c1be712c314a975a3d43ebc48b08ca54d0dac9122885604051610fec919061191b565b60405180910390a350505050565b6060600480548060200260200160405190810160405280929190818152602001828054801561104857602002820191906000526020600020905b815481526020019060010190808311611034575b5050505050905090565b60036020528160005260406000206020528060005260406000206000915091509054906101000a900460ff1681565b600060019054906101000a900473ffffffffffffffffffffffffffffffffffffffff1673ffffffffffffffffffffffffffffffffffffffff163373ffffffffffffffffffffffffffffffffffffffff1614611111576040517f08c379a000000000000000000000000000000000000000000000000000000000815260040161110890611936565b60405180910390fd5b600073ffffffffffffffffffffffffffffffffffffffff168173ffffffffffffffffffffffffffffffffffffffff161415611181576040517f08c379a0000000000000000000000000000000000000000000000000000000008152600401611178906119f6565b60405180910390fd5b80600060016101000a81548173ffffffffffffffffffffffffffffffffffffffff021916908373ffffffffffffffffffffffffffffffffffffffff16021790555050565b6111cd6108d9565b1561120d576040517f08c379a000000000000000000000000000000000000000000000000000000000815260040161120490611996565b60405180910390fd5b565b6112176111c5565b60016000806101000a81548160ff0219169083151502179055507f62e78cea01bee320cd4e420270b5ea74000d11b0c9f74754ebdbfc544b05a25861125a6112d3565b60405161126791906118de565b60405180910390a1565b6112796112db565b60008060006101000a81548160ff0219169083151502179055507f5db9ee0a495bf2e6ff9c91a7834c1ba4fdd244a5e8aa4e537bd38aeae4b073aa6112bc6112d3565b6040516112c991906118de565b60405180910390a1565b600033905090565b6112e36108d9565b611322576040517f08c379a000000000000000000000000000000000000000000000000000000000815260040161131990611956565b60405180910390fd5b565b82805461133090611da2565b90600052602060002090601f0160209004810192826113525760008555611399565b82601f1061136b57805160ff1916838001178555611399565b82800160010185558215611399579182015b8281111561139857825182559160200191906001019061137d565b5b5090506113a691906113aa565b5090565b5b808211156113c35760008160009055506001016113ab565b5090565b60006113da6113d584611b4d565b611b1c565b9050828152602081018484840111156113f257600080fd5b6113fd848285611d60565b509392505050565b60008135905061141481611ebb565b92915050565b60008135905061142981611ed2565b92915050565b600082601f83011261144057600080fd5b81356114508482602086016113c7565b91505092915050565b60008135905061146881611ee9565b92915050565b60006020828403121561148057600080fd5b600061148e84828501611405565b91505092915050565b600080604083850312156114aa57600080fd5b600083013567ffffffffffffffff8111156114c457600080fd5b6114d08582860161142f565b92505060206114e185828601611459565b9150509250929050565b6000602082840312156114fd57600080fd5b600061150b84828501611459565b91505092915050565b6000806040838503121561152757600080fd5b600061153585828601611459565b925050602061154685828601611405565b9150509250929050565b6000806040838503121561156357600080fd5b600061157185828601611459565b92505060206115828582860161141a565b9150509250929050565b600061159883836118c0565b60208301905092915050565b6115ad81611cfc565b82525050565b60006115be82611b8d565b6115c88185611bb0565b93506115d383611b7d565b8060005b838110156116045781516115eb888261158c565b97506115f683611ba3565b9250506001810190506115d7565b5085935050505092915050565b61161a81611d0e565b82525050565b600061162b82611b98565b6116358185611bc1565b9350611645818560208601611d6f565b61164e81611eaa565b840191505092915050565b6000611666602583611bc1565b91507f4f6e6c7920746865206f776e65722063616e2063616c6c20746869732066756e60008301527f6374696f6e0000000000000000000000000000000000000000000000000000006020830152604082019050919050565b60006116cc601483611bc1565b91507f5061757361626c653a206e6f74207061757365640000000000000000000000006000830152602082019050919050565b600061170c602983611bc1565b91507f566f74696e6720706572696f642068617320656e64656420666f72207468697360008301527f2070726f706f73616c00000000000000000000000000000000000000000000006020830152604082019050919050565b6000611772601083611bc1565b91507f5061757361626c653a20706175736564000000000000000000000000000000006000830152602082019050919050565b60006117b2601783611bc1565b91507f50726f706f73616c20646f6573206e6f742065786973740000000000000000006000830152602082019050919050565b60006117f2602783611bc1565b91507f596f75206861766520616c726561647920766f746564206f6e2074686973207060008301527f726f706f73616c000000000000000000000000000000000000000000000000006020830152604082019050919050565b6000611858602483611bc1565b91507f4e6577206f776e65722063616e6e6f7420626520746865207a65726f2061646460008301527f72657373000000000000000000000000000000000000000000000000000000006020830152604082019050919050565b6118ba81611d1a565b82525050565b6118c981611d56565b82525050565b6118d881611d56565b82525050565b60006020820190506118f360008301846115a4565b92915050565b6000602082019050818103600083015261191381846115b3565b905092915050565b60006020820190506119306000830184611611565b92915050565b6000602082019050818103600083015261194f81611659565b9050919050565b6000602082019050818103600083015261196f816116bf565b9050919050565b6000602082019050818103600083015261198f816116ff565b9050919050565b600060208201905081810360008301526119af81611765565b9050919050565b600060208201905081810360008301526119cf816117a5565b9050919050565b600060208201905081810360008301526119ef816117e5565b9050919050565b60006020820190508181036000830152611a0f8161184b565b9050919050565b6000602082019050611a2b60008301846118cf565b92915050565b600060a082019050611a4660008301886118cf565b8181036020830152611a588187611620565b9050611a6760408301866118b1565b611a7460608301856118b1565b611a8160808301846118cf565b9695505050505050565b600060c082019050611aa060008301896118cf565b8181036020830152611ab28188611620565b9050611ac160408301876118cf565b611ace60608301866118cf565b611adb60808301856118cf565b611ae860a08301846118cf565b979650505050505050565b6000604082019050611b0860008301856118cf565b611b1560208301846118cf565b9392505050565b6000604051905081810181811067ffffffffffffffff82111715611b4357611b42611e7b565b5b8060405250919050565b600067ffffffffffffffff821115611b6857611b67611e7b565b5b601f19601f8301169050602081019050919050565b6000819050602082019050919050565b600081519050919050565b600081519050919050565b6000602082019050919050565b600082825260208201905092915050565b600082825260208201905092915050565b6000611bdd82611d1a565b9150611be883611d1a565b9250826fffffffffffffffffffffffffffffffff03821115611c0d57611c0c611e1d565b5b828201905092915050565b6000611c2382611d56565b9150611c2e83611d56565b9250827fffffffffffffffffffffffffffffffffffffffffffffffffffffffffffffffff03821115611c6357611c62611e1d565b5b828201905092915050565b6000611c7982611d56565b9150611c8483611d56565b9250817fffffffffffffffffffffffffffffffffffffffffffffffffffffffffffffffff0483118215151615611cbd57611cbc611e1d565b5b828202905092915050565b6000611cd382611d56565b9150611cde83611d56565b925082821015611cf157611cf0611e1d565b5b828203905092915050565b6000611d0782611d36565b9050919050565b60008115159050919050565b60006fffffffffffffffffffffffffffffffff82169050919050565b600073ffffffffffffffffffffffffffffffffffffffff82169050919050565b6000819050919050565b82818337600083830152505050565b60005b83811015611d8d578082015181840152602081019050611d72565b83811115611d9c576000848401525b50505050565b60006002820490506001821680611dba57607f821691505b60208210811415611dce57611dcd611e4c565b5b50919050565b6000611ddf82611d56565b91507fffffffffffffffffffffffffffffffffffffffffffffffffffffffffffffffff821415611e1257611e11611e1d565b5b600182019050919050565b7f4e487b7100000000000000000000000000000000000000000000000000000000600052601160045260246000fd5b7f4e487b7100000000000000000000000000000000000000000000000000000000600052602260045260246000fd5b7f4e487b7100000000000000000000000000000000000000000000000000000000600052604160045260246000fd5b6000601f19601f8301169050919050565b611ec481611cfc565b8114611ecf57600080fd5b50565b611edb81611d0e565b8114611ee657600080fd5b50565b611ef281611d56565b8114611efd57600080fd5b5056fea2646970667358221220e50749e9b3b3c1a06c98676253d88510d260978141087a0dfee6910ad1aa72be64736f6c63430008000033",
  "linkReferences": {},
  "deployedLinkReferences": {}
}